:100000000C94550B0C94720B0C94720B0C94720B99
:100010000C94720B0C94720B0C94720B0C94911741
:100020000C94720B0C94720B0C94720B0C945A3946
:100030000C94720B0C94720B0C94720B0C94720B4C
:100040000C9443390C94720B0C94720B0C94720B3D
:100050000C94720B0C94720B0C94720B0C94720B2C
:100060000C94720B0C94720BF916FC160017021705
:10007000061709170C170F17121715172017201737
:1000800020172017201720172017201718171B17C5
:1000900020172017201720172017201720171E17AA
:1000A000050A0605060A050A0609060A050A0609DA
:1000B000060A050A0609060A050A0609060A050AC5
:1000C00006050A06090A06090A06000010000000D3
:1000D000100000E01300001C1C00000370008000F2
:1000E000900040001001200C0802100C0404100CB9
:1000F0000204080C0108088C0008084C0008042CB5
:100100000010041C0010FF0F0010041C0010042C31
:100110000010084C0008088C0408080C0708100C94
:100120000704108C0704200C080240001001800016
:10013000900000037000001C1C0000E01300000091
:10014000100000001000000000000000100000007F
:10015000100000E01300001C1C0000037000800071
:1001600090004000100120000802108C0404108C44
:100170000304088C0308088C0708084C0008042CAA
:100180000010041C0010FF0F0010041C0010042CB1
:100190000010084C0008088C0008080C0108100C1E
:1001A0000204100C0404200008024000100180002A
:1001B000900000037000001C1C0000E01300000011
:1001C00010000000100000000000000010000000FF
:1001D000100000E01300001C1C00000370008000F1
:1001E0009000401010012010100210F41F04101491
:1001F0000004081400080804000808040008041497
:1002000002100414031004F41F1004141310041437
:10021000121008041008080410080814100810141C
:100220001004FFF71F04201010024010100180007E
:10023000900000037000001C1C0000E01300000090
:10024000100000001000000000000000100000007E
:10025000100000E01300001C1C0000037000800070
:1002600090004010100120101002FFF71F0410141E
:1002700010040814100808041008080410080414D6
:1002800011100414131004F41F10041403100414A8
:1002900001100804000808040008081400081014DD
:1002A000000410F41F042010100240101001800000
:1002B000900000037000001C1C0000E01300000010
:1002C00010000000100000000000000010000000FE
:1002D000100000E01300001C1C00000370008000F0
:1002E0009000401010012010100210F41F04101490
:1002F0000004081400080814000808140008041476
:1003000002100414031004F41F1004141310041436
:1003100012100814100808141008081410081014FB
:100320001004FFF71F04201010024010100180007D
:10033000900000037000001C1C0000E0130000008F
:10034000100000001000000000000000100000007D
:10035000100000E01300001C1C000003700080006F
:1003600090004010100120101002FFF71F0410141D
:1003700010040814100808141008081410080414B5
:1003800011100414131004F41F10041403100414A7
:1003900001100814000808140008081400081014BC
:1003A000000410F41F0420101002401010018000FF
:1003B000900000037000001C1C0000E0130000000F
:1003C00010000000100000000000000010000000FD
:1003D000100000E01300001C1C00000370008000EF
:1003E000900040001001201010021010100410F0B6
:1003F0001F04081000080810000808100008041066
:10040000001004100010041000100410001004105C
:100410000010081000080812000808160008FFFF66
:100420001F0410161004201210024000100180005A
:10043000900000037000001C1C0000E0130000008E
:10044000100000001000000000000000100000007C
:10045000100000E01300001C1C000003700080006E
:100460009000400010012012100210131004FFFF32
:100470001F040813000808120008081000080410E0
:1004800000100410001004100010041000100410DC
:10049000001008100008081000080810000810F0EC
:1004A0001F041010100420101002400010018000E2
:1004B000900000037000001C1C0000E0130000000E
:1004C00010000000100000000000000010000000FC
:1004D000100000E01300001C1C00000370008000EE
:1004E00090004000100120080802100A0404100ABD
:1004F0000204080A0108088A0008084A0008042AB9
:100500000010041A0010FF0B0010041A0010042A37
:100510000010084A0008088A0408080A0708100A98
:100520000704108A07042008080240001001800018
:10053000900000037000001C1C0000E0130000008D
:10054000100000001000000000000000100000007B
:10055000100000E01300001C1C000003700080006D
:100560009000400010012000080210880404108A46
:100570000304088A0308088A0708084A0008042AAE
:100580000010041A0010FF0B0010041A0010042AB7
:100590000010084A0008088A0008080A0108100A22
:1005A000020410080404200008024000100180002A
:1005B000900000037000001C1C0000E0130000000D
:1005C000100000001000000000000000000000808B
:1005D000000000800000008000000080000000801B
:1005E0000000008000000080000000800000C0FFCC
:1005F000FF0180FFFF0000FF7F0000FE3F0000FCC6
:100600001F0000F80F0000F0070000E0030000C02A
:10061000010000800000C0FFFF0100C0000000A03A
:1006200000000090000000880000008400000082AC
:100630000000FF81000000800000008000000080BA
:1006400000000080000000000000000000000080AA
:10065000000000800000008000000080000000809A
:10066000000000800000008000000080000000808A
:100670000000E0FFFF030004FF01000EFF01000E79
:10068000FE00001FFE00001F7C00803F7C00803FBA
:100690003800C07F3800C07F1000E0FFFF030084F7
:1006A00000000082000000810000808000007F8048
:1006B000000000800000008000000080000000803A
:1006C000000000800000000000000000000000802A
:1006D0000000008000000080000000800000FF811A
:1006E00000000082000000840000008800000090EC
:1006F000000000A0000000C00000C0FFFF0180FF5C
:10070000FF0000FF7F0000FE3F0000FC1F0000F81C
:100710000F0000F0070000E0030000C001000080AF
:100720000000C0FFFF01008000000080000000808A
:1007300000000080000000800000008000000080B9
:100740000000008000000000000000001000000019
:10075000100000E01300001C1C000003700080006B
:10076000900040001001201010023F10100450F0C3
:100770001F048812000808130008881300080414D6
:1007800000100418001004100010041000100410D1
:10079000001008100008081000080810000810F0E9
:1007A0001F041010100420101002400010018000DF
:1007B000900000037000001C1C0000E0130000000B
:1007C00010000000100000000000FF0102030405FB
:1007D0000607FFFFFFFFFFFFFFFFFFFFFFFFFFFF1A
:1007E000FFFFFFFFFFFFFFFFFFFF101112131415A4
:1007F000161718191A1B1C1D1E1F20212223242521
:10080000262728292A2B2C2D2E2F30313233343510
:10081000363738393A3B3C3D3E3F40414243444500
:10082000464748494A4B4C4D4E4F505152535455F0
:10083000565758595A5B5C5D5E5F606162636465E0
:10084000666768696A6B6C6D6EFFFFFFFFFFFFFFF5
:10085000FFFFFFFFFFFFFFFFFFFFFFFFFFFFFFFFA8
:10086000FFFFFFFFFFFFFFFFFFFFFFFFFFFFFFFF98
:10087000FFFFFFFFFFFFFFFFFFFF0FFFFFFFFF0572
:10088000FFFFFFFFFFFFFFFFFFFFFFFFFFFF08FF6F
:10089000FFFFFFFFFFFFFFFFFFFFFFFFFFFFFFFF68
:1008A00009FFFFFFFFFF0AFFFF0BFFFFFFFF0CFF2A
:1008B000FFFFFFFFFFFFFFFFFFFFFFFFFFFFFFFF48
:1008C0000DFFFFFFFFFF0EFFFFFF00000000000015
:1008D0000000000000000000000000000000000018
:1008E0000000000000000000000000000000820086
:1008F00086008E009E00BE00FF03BE009E008E009C
:10090000860082000000000000000000000082005D
:10091000C200E200F200FA00FF03FA00F200E20077
:10092000C2008200000000000000000000008601FC
:10093000860186018601860187038601860186017C
:10094000860186010000000000000000780084009D
:100950000201020102010201020184004800480074
:1009600048008601000000000000000000000000B8
:10097000000000008200820082008200820082006B
:10098000C600BA0002000200020000000000FE03E0
:100990000200020002000200030002000200020046
:1009A0000200FE0300000000000000000000FF0144
:1009B000000100010001000100030001000100012D
:1009C0000001FF01000000000000440000000000E2
:1009D000100038002800480044008400FE00020196
:1009E00002010102000000000000440000000000BD
:1009F00078008400020102010201020102010201E9
:100A000084007800000000000000440000000000A6
:100A100082008200820082008200820082008200C6
:100A200044003C0000000000000000001C00220008
:100A30002200220012001200120022004200820056
:100A4000820072000000000000000000000024008E
:100A5000000000003C0040004000780044004200DC
:100A60006200DC0000000000000000000000240024
:100A700000000000380044008200820082008200F2
:100A800044003800000000000000000000002400C6
:100A900000000000420042004200420042004200CA
:100AA00062005C0000000000000000001000280050
:100AB0001000000000000000000000000000000026
:100AC0000000000000000000000000000000000026
:100AD0000000000000000000000000000000000016
:100AE00000000000000000000000000010001000E6
:100AF0001000100010001000100010001000000086
:100B0000100010000000000000000000440044003D
:100B1000440044000000000000000000000000004D
:100B200000000000000000000000000090009000A5
:100B300048004800FE0148002400FF012400240072
:100B4000120012000000000000002000F8002C003D
:100B500024002400280030006000E000A000A00075
:100B6000A4007C0020000000000000000E02110123
:100B7000910051004E0020001000C80128022402FC
:100B80002202C10100000000000000003800440003
:100B90004400640038000C001202310221014101BE
:100BA000C200FC0100000000000000001000100066
:100BB0001000100000000000000000000000000015
:100BC0000000000000000000000000008001600044
:100BD00030001000080008000800080008000800A5
:100BE00010003000600080010000000006001800C6
:100BF0003000200040004000400040004000400025
:100C00002000300018000600000000001000100056
:100C1000D6006C002800380028000000000000000A
:100C200000000000000000000000000000000000C4
:100C3000000000001000100010001000FF01100064
:100C40001000100000000000000000000000000084
:100C50000000000000000000000000000000000094
:100C6000180018001000100008000000000000002C
:100C700000000000000000000000FC000000000078
:100C80000000000000000000000000000000000064
:100C90000000000000000000000000000000000054
:100CA0001800180000000000000000000001800093
:100CB00080004000400020002000100010000800CC
:100CC0000800040004000200000000003800440096
:100CD0004400820082008200820082008200440080
:100CE00044003800000000000000000010001E005A
:100CF0001000100010001000100010001000100074
:100D00001000FE0000000000000000003E00420055
:100D100040004000400020002000100008000400B7
:100D200002007E0000000000000000003C004000C7
:100D300040004000400038004000400040004000BB
:100D400040003C00000000000000000020003000D7
:100D5000280028002400220022002100FF0020009B
:100D60002000200000000000000000007C000400C3
:100D7000040004001C00200040004000400040002F
:100D800020001C00000000000000000078000400AB
:100D9000040002003A0046008200820082008200C5
:100DA000440038000000000000000000FE00800049
:100DB000400020002000100010000800080008007B
:100DC0000400040000000000000000007C0082001D
:100DD00082008200640018006400420082008200E9
:100DE00042003C0000000000000000003800440009
:100DF0008200820082008200C400B80080004000AF
:100E000040003C0000000000000000000000000066
:100E100000000000180018000000000000000000A2
:100E20001800180000000000000000000000000092
:100E30000000000018001800000000000000000082
:100E4000180018001000100008000000000000004A
:100E5000000000000001C00030000C000C00300059
:100E6000C0000001000000000000000000000000C1
:100E70000000000000000000FE0100000000FE0174
:100E80000000000000000000000000000000000062
:100E90000000000002000C003000C000C000300064
:100EA0000C00020000000000000000007E00C200F4
:100EB00082008000400020001000080008000000B0
:100EC0000800080000000000000000007800840016
:100ED000E200930089008900C900C900E900B2035B
:100EE00046007C0000000000000000000000000040
:100EF000100038002800480044008400FE00020171
:100F000002010102000000000000000000000000DB
:100F10007E008200820042003E0042008200820089
:100F200082007E00000000000000000000000000C1
:100F3000F80086000200010001000100010002002B
:100F40000600F800000000000000000000000000A3
:100F50003E00420082008200820082008200820005
:100F600042003E0000000000000000000000000001
:100F7000FE0002000200020002007E0002000200E9
:100F80000200FE0000000000000000000000000061
:100F9000FE0002000200020002007E0002000200C9
:100FA000020002000000000000000000000000003D
:100FB000F0010C01040002000200C2010201040160
:100FC0000C01F00100000000000000000000000023
:100FD00082008200820082008200FE008200820085
:100FE00082008200000000000000000000000000FD
:100FF000FE00100010001000100010001000100083
:101000001000FE00000000000000000000000000D2
:101010007800400040004000400040004000400098
:1010200040003C0000000000000000000000000044
:1010300082004200220012000E000A00120062002C
:10104000820002010000000000000000000000001B
:101050000200020002000200020002000200020080
:101060000200FE0000000000000000000000000080
:10107000C300C300C700A500A500AD0099009900FA
:10108000810081000000000000000000000000005E
:10109000820086008A008A0092009200A200A200CC
:1010A000C2008200000000000000000000000000FC
:1010B0007800840002010201020102010201020122
:1010C0008400780000000000000000000000000024
:1010D0007E0082008200820042003E000200020088
:1010E00002000200000000000000000000000000FC
:1010F00078008400020102010201020102010201E2
:101100008400780040008001000000000000000022
:101110003E0042004200420022001E001200220057
:1011200042008200000000000000000000000000FB
:10113000FC008200020006001800600080008000B1
:10114000C2003E000000000000000000000000009F
:10115000FF0110001000100010001000100010001F
:10116000100010000000000000000000000000005F
:10117000820082008200820082008200820082005F
:1011800044003C00000000000000000000000000DF
:10119000010202010201840084004400480048006A
:1011A00030003000000000000000000000000000DF
:1011B000010201021201320132012A014A01CC006E
:1011C000CC008400000000000000000000000000CF
:1011D0000102020184004800300030004800840011
:1011E00002010102000000000000000000000000F9
:1011F00001020201840044002800100010001000C9
:1012000010001000000000000000000000000000BE
:10121000FE010001800040002000100008000400D2
:101220000200FE010000000000000000F8000800BD
:10123000080008000800080008000800080008006E
:10124000080008000800F800000000000200040088
:1012500004000800080010001000200020004000DA
:101260004000800080000001000000003E002000DF
:10127000200020002000200020002000200020006E
:101280002000200020003E00000000002000200080
:10129000300050005800480088008400840002019B
:1012A000000000000000000000000000000000003E
:1012B000000000000000000000000000000000002E
:1012C00000000000FF0300000000100020000000EC
:1012D000000000000000000000000000000000000E
:1012E00000000000000000000000000000000000FE
:1012F000000000003C004000400078004400420034
:101300006200DC000000000000000000020002009B
:10131000020002007A004600820082008200820001
:1013200046003A000000000000000000000000003D
:1013300000000000F80004000200020002000200A9
:101340000400F800000000000000000080008000A1
:1013500080008000B800C400820082008200820009
:10136000C400BC00000000000000000000000000FD
:1013700000000000780084008200FE0002000200ED
:101380000400F8000000000000000000E001180068
:1013900008000800FE010800080008000800080016
:1013A000080008000000000000000000000000002D
:1013B00000000000B800C4008200820082008200A9
:1013C000C400BC00800040003C000000020002009D
:1013D0000200020072008A00860082008200820001
:1013E00082008200000000000000000018001800C9
:1013F000000000001E00100010001000100010007F
:10140000100010000000000000000000300030005C
:10141000000000003C0020002000200020002000F0
:1014200020002000200020001E000000020002001A
:10143000020002008200620012000E000A00320068
:101440004200820000000000000000003C0020007C
:10145000200020002000200020002000200020008C
:10146000200020000000000000000000000000003C
:1014700000000000CD003301110111011101110123
:101480001101110100000000000000000000000038
:101490000000000072008E00860082008200820040
:1014A0008200820000000000000000000000000038
:1014B00000000000380044008200820082008200A8
:1014C00044003800000000000000000000000000A0
:1014D000000000007A004600820082008200820044
:1014E00046003A0002000200020000000000000076
:1014F00000000000B800C400820082008200820068
:10150000C400BC00800080008000000000000000DB
:1015100000000000E40094008C00040004000400BB
:1015200004000400000000000000000000000000B3
:10153000000000007C00020002000C0030004000AF
:1015400042003E000000000000000000000000001B
:1015500008000800FE000800080008000800080055
:101560000800F00000000000000000000000000083
:1015700000000000420042004200420042004200DF
:1015800062005C000000000000000000000000009D
:10159000000000000101820082004200440024009B
:1015A00028001800000000000000000000000000FB
:1015B0000000000001021102320132014A014A0119
:1015C000CC008400000000000000000000000000CB
:1015D0000000000002018400480030003000480094
:1015E0008400020100000000000000000000000074
:1015F0000000000001020201020184004C004800CA
:10160000300030001000080007000000000000005B
:1016100000000000FE0180004000200010000800D3
:101620000400FE010000000000000000E0001000C7
:10163000100010001000100010000C00100010002E
:10164000100010001000E00000000000100010006A
:10165000100010001000100010001000100010000A
:101660001000100010001000000000001C002000FE
:1016700020002000200020002000C00020002000CA
:101680002000200020001C000000000000000000DE
:1016900000000000000000000E023102C101000045
:1016A0000000000000000000000011241FBECFEF6A
:1016B000D8E0DEBFCDBF11E0A0E0B1E0E0E9FFE798
:1016C00002C005900D92A630B107D9F721E0A6E03F
:1016D000B1E001C01D92A93FB207E1F70E948F3C23
:1016E0000C94C63F0C940000A0E0B0E0EAE7FBE0F9
:1016F0000C94213FD82FD62EC42EE0902C01F090D0
:101700002D0180E00E94522081E00E94522082E060
:101710000E9452208DE30E948A3B00E011E0C0E06D
:10172000F801819191918F0190932D0180932C016B
:101730008091AF01C81731F08091B001C81721F036
:101740008C2D03C08D2F01C08D2D0E948A3BCF5F51
:10175000C33031F7F0922D01E0922C01CDB7DEB706
:10176000E8E00C943D3FA3E0B0E0E9EBFBE00C9433
:101770001F3FA0902C01B0902D0189836A834B8379
:10178000CE0101966C0180E0E82E81E0F82E10E099
:10179000F60101916F010023B1F0812F0E945220C8
:1017A0008AE30E948A3BF7018081918190932D0109
:1017B00080932C01802F0E948A3BB0922D01A09231
:1017C0002C010E946E201F5FF2E0EF0EF11C13301F
:1017D000F9F62396EAE00C943B3FEF920F931F93A8
:1017E000CF93DF93C22FD02F0E943B1E182F0E9451
:1017F0000B2085E40E948A3B6C2F70E080E090E033
:1018000020E040E00E94AB200E946E2041E00A30C0
:1018100008F040E08D2F6AE00E946D3E682F70E076
:1018200080E090E025E20E94AB200E946E20112310
:10183000F1F0C09127014E2D6091C5018091C10149
:101840009091C2010E94A6211230A1F40E940B20A7
:10185000609128018C2F0E949F3A4E2D6091CA0101
:101860008091C6019091C7010E94A62103C08DE21C
:101870000E948A3BDF91CF911F910F91EF900895C5
:101880008AEC92E00E94432083EC92E00E94772051
:101890008091AD018F5F8093AD0108958091070124
:1018A0008130D1F48AE692E00E9443200E940B200E
:1018B00080910C010E9452208AE30E948A3B0E9480
:1018C0006E2060910D0170910E0180E090E026E5A0
:1018D0004DEF0E94FA200895823011F40E94400CCE
:1018E0000895CF93C62F0E948A3B85EF90E00E9417
:1018F00043208C2F0E948A3B0E946E20E1E1F1E0A0
:10190000638174818581968124E042810E94FA205E
:10191000CF910895A0E0B0E0E0E9FCE00C94213F15
:1019200080910A01813039F4F090110100E010E05B
:10193000C1E1D1E05BC0833009F04CC000911401DB
:1019400010911501209116013091170160911B0132
:1019500070911C0180911D0190911E01E090130176
:1019600040911A010E94FD12813029F428E1C22E13
:1019700021E0D22E04C091E1C92E91E0D92EF601CA
:1019800003811481258136816091220170912301A8
:101990008091240190912501E280409121010E94D3
:1019A000FD12813021F48FE1C82E81E0D82EF1E1C3
:1019B000CF16F1E0DF0619F4C8E1D1E002C0C1E1C1
:1019C000D1E08E01095F1F4FC016D10639F4095FBF
:1019D0001F4F04C008E111E0C1E1D1E08881F801A6
:1019E000F0808F1519F0F1808F11F9808881F8123D
:1019F00001C089810E94522085EF90E00E9443201F
:101A00008F2D0E9452200115110561F085EF90E0A5
:101A10000E944320F8018081F81202C0F801818100
:101A20000E9452200E940B206B817C818D819E81BF
:101A300024E04A810E94FA200115110551F00E940C
:101A40006E20F801638174818581968124E0428152
:101A500012C0CE010E942E33813079F40E946E2094
:101A60006091E9017091EA018091EB019091EC01A4
:101A700028E44091E8010E94FA20CDB7DEB7E8E003
:101A80000C943D3FEF920F931F93CF93DF93009100
:101A900052011091530120915401309155016091F0
:101AA0006101709162018091630190916401E09005
:101AB0005101409160010E94FD12813019F4CEE580
:101AC000D1E002C0CFE4D1E00B811C812D813E81A9
:101AD0006091700170917101809172019091730118
:101AE000EA8040916F010E94FD12813011F4CDE631
:101AF000D1E088810E94522082E091E00E94432040
:101B000089810E9452200E940B206B817C818D81F3
:101B10009E8126E44A810E94FA20CE010E94AE25D1
:101B20008C010F3F8FEF180749F00E946E20B8011B
:101B300080E090E024E04EEF0E94FA208B859C85A7
:101B4000AD85BE85892B8A2B8B2B61F085E291E0D8
:101B50000E9482206B857C858D859E8521E448EFDF
:101B60000E94FA206B817C818D819E8126E4E22E89
:101B700008EC26E04A810E94ED0B6B817C818D810F
:101B80009E8104E62CE04A810E94ED0BDF91CF910B
:101B90001F910F91EF900895EF920F931F93CF93A2
:101BA000DF93EC016091C1017091C2018091C3018A
:101BB0009091C40127EFE22E02E310E020E030E034
:101BC0004091C5010E94FD1287FD10C0CE010E9408
:101BD00082206091C1017091C2018091C3019091F6
:101BE000C40121E44091C5010E94FA20DF91CF9108
:101BF0001F910F91EF90089540E0FC016081818179
:101C00000E948029EFE4F1E06381748185819681EF
:101C100026E442810E94FA200895A0E0B0E0E3E1CA
:101C2000FEE00C94203F80910B01813051F4E09054
:101C30007D01E5E0DE2EF5E0FF2E85E000E010E01E
:101C400031C18230F1F4F0907C01D0908201C090DB
:101C50007D01E0908301FD1006C0DE2C75E0E72ECB
:101C6000BB24B3945CC0CE1409F419C1FE1011C199
:101C7000DC100FC1EF2C35E0D32E45E0C42EB12C83
:101C80004EC0833009F03FC080E066E0282F30E08E
:101C900090E0629FF001639FF00D1124E358FE4F26
:101CA000492F50E0891769F0649FD001659FB00DFE
:101CB0001124A458BE4FC0817C91C71302C095E087
:101CC00085E09F5F933060F38F5F8330F8F285305B
:101CD00048F086E0849F8001859F100D11240458F0
:101CE0001E4F02C000E010E086E0829FE001839F6B
:101CF000D00D1124C458DE4FE98055E0D52E65E0A3
:101D0000F62E83E0D1C08EEF90E00E9443200E9427
:101D10006E2080910B01805D0E948A3BDFC082E0D3
:101D20008F1580F080917D010E9452208AEF90E013
:101D30000E9443208F2D0E945220CCE7D1E002E880
:101D400011E015C002E811E0CCE7D1E088810E94E3
:101D500052208EEF90E00E9443208E2D0E94522050
:101D60000115110509F4A5C0E3E0EF1548F08EEF69
:101D700090E00E944320EF1439F0F801818106C001
:101D80008AEF90E00E944320F80180810E94522057
:101D9000F4E0FC1508F458C049E16D2D8C2D0E942B
:101DA0006B258130C1F40E946E2082E08F1518F0FF
:101DB0008EE891E002C082E991E00E9443208FE327
:101DC0000E948A3B0E940B2061E36D0D81E38C0D24
:101DD0000E94710CB12C89E791E00E9482206A81F7
:101DE0007B8180E090E026E54DEF0E94FA200E9482
:101DF0006E2001151105B1F58C819D818A3F9105F9
:101E000070F488E20E948A3B6C817D8180E090E0E2
:101E100020E040E00E94FA2089E20E948A3B40E0F4
:101E2000688189810E942A1C81E00E94272A8FE60E
:101E300091E00E94CC0DE1E0BE1250C087E791E036
:101E40000E948220CE0148C089E791E00E94822052
:101E50006A817B8180E090E026E54DEF0E94FA20C8
:101E60000E946E20F8016281738180E090E026E597
:101E70004DEF0E94FA20F1E0BF1230C087E791E0F9
:101E80000E948220CE010E94FC0D0E946E20C8019B
:101E900023C085E0D82E95E0F92E25E0E22E85E0DE
:101EA00002E811E0CCE7D1E0CF2CF82EBB24B394AC
:101EB0004DCF84E08C1508F06FCF89E791E00E9448
:101EC00082206A817B8180E090E026E54DEF0E94D0
:101ED000FA200E946E2090CF0E94FC0DCDB7DEB795
:101EE000E9E00C943C3F8F929F92AF92BF92DF92B9
:101EF000EF92FF920F931F93CF93DF93909107017F
:101F00008091AF01C091B101D091B00190FF0EC09E
:101F1000182F0D2FDD2EE82EDC2FFF24F39422E066
:101F2000922E32E9A32E31E0B32E0DC01C2FC82F04
:101F3000D82EED2E012F82E0F82E992493949EE85E
:101F4000A92E91E0B92E81E592E00E947220C50190
:101F50000E9443208091070182FF03C08BE20E9410
:101F60008A3B0E940B2045E463E482E40E94740BE8
:101F7000602F8D2F0E948A2A5C01892B59F00E94C4
:101F80006E2083E40E948A3B892D0E948A3B85E46F
:101F90000E948A3B49E1612F8C2F0E946B25813082
:101FA00049F40E940B2065E482E40E94710C84E0F5
:101FB00080932E018AE891E00E9482206091B9010D
:101FC0007091BA018091BB019091BC0120E040E08A
:101FD0000E94FA200E946E208091B20180FF02C010
:101FE00085E603C081FF03C083E60E948A3B8BE045
:101FF00091E00E9477208091B20180FF02C083E4CB
:1020000003C081FF03C085E40E948A3B0E946E20CA
:102010006091B7017091B801072E000C880B990BE5
:1020200021E44AEF0E948221AB28E1F48091BD01B6
:102030009091BE01A091BF01B091C001892B8A2B64
:102040008B2B81F086E091E00E9482206091BD019F
:102050007091BE018091BF019091C00120E040E0ED
:102060000E94FA206C2F812F0E948A2A8C01892BD2
:10207000A1F186E891E00E948220F801C281D3811B
:10208000248135818090B9019090BA01A090BB0164
:10209000B090BC01F4E68F169104A104B10498F04D
:1020A000CE01821B930B63E070E00E949B3E8AEF9F
:1020B00088169104A104B10418F4C61BD70B03C001
:1020C000EB01C20FD31FCE01A0E0B0E026E54DEF3B
:1020D000BC01CD010E94FA2002C0C0E0D0E08CE734
:1020E00091E00E94CC0DC53FD14008F16D2D8E2DA1
:1020F0000E948A2AEC01892BD1F08A819B81823C43
:102100009140A8F40E940B2082E40E948A3B8F2D0C
:102110000E948A3B83E40E948A3B0E946E206A816F
:102120007B8180E090E026E54DEF0E94FA20DF9170
:10213000CF911F910F91FF90EF90DF90BF90AF90E4
:102140009F908F900895FF920F931F93CF93DF93EB
:10215000809107019091B1016091B00180FF03C0AF
:10216000892F02E003C0862F692F01E090910601BC
:102170009F3121F015E423E4F22E03C013E594E42B
:10218000F92E0E948A2AEC01892B59F00E946E20B8
:102190008F2D0E948A3B802F0E948A3B812F0E94B4
:1021A0008A3B8091070183FD49C08091B5019091E0
:1021B000B601892B81F083E791E00E948220609133
:1021C000B5017091B601072E000C880B990B26E51E
:1021D0004DEF0E94822186E991E00E948220609169
:1021E000C6017091C7018091C8019091C90126E490
:1021F0004091CA010E94FA208091B3019091B401EC
:10220000892B71F081E291E00E9482206091B301FC
:102210007091B40180E090E024E04EEF0E94FA203B
:10222000209761F089E791E00E9482206A817B819A
:1022300080E090E026E54DEF0E94FA20CDB7DEB7B2
:10224000E5E00C94403F0E946E208091070180FFE2
:1022500002C08EE401C080E50E948A3B89EA91E0D9
:102260000E94432008950E946E208091070182FF02
:1022700003C084EA91E002C08FE991E00E9443200C
:1022800008958091070184FF05C081EB91E00E94D1
:10229000432003C08AE40E948A3B8DEA91E00E94B9
:1022A00043200E9423118091070184FD0E94331175
:1022B0000E940B208091070186FF03C048E768E772
:1022C00002C043E564E487E40E94740B8091070137
:1022D00084FD0E94A3108091070183FF1EC089E244
:1022E00091E00E94CC0D8091B7019091B801892BAB
:1022F000A1F087E191E00E9482200E940B200E94C1
:102300006E206091B7017091B801072E000C880B08
:10231000990B26E54DEF0E94822108958AE991E00C
:102320000E9443200E9423110E9433110E940B201F
:1023300045E463E487E40E94740B0E94A3100895AF
:1023400080910601823249F48DE492E00E9443209C
:102350000E940B2043E461E408C087E492E00E94FD
:1023600043200E940B2041E362E387E40E94740B48
:102370008091B3019091B401892B71F081E891E0D3
:102380000E9482206091B3017091B40180E090E0DE
:1023900026E54DEF0E94FA200895CF93DF9383E462
:1023A00092E00E9443200E940B2043E461E487E412
:1023B0000E94740B8CE691E00E948220CCE3D1E075
:1023C0006D817E8180E090E026E54DEF0E94FA204D
:1023D00089E791E00E9482206B817C8180E090E01F
:1023E00026E54DEF0E94FA20DF91CF91089583EF0B
:1023F00091E00E9443200E940B2041E362E385E4C8
:102400000E94740B8EE091E00E948220E1E1F1E0F5
:10241000638174818581968124E042810E94FA2043
:102420000895CF9388EC8093A30184E00E94B71BAA
:10243000AC018B5C9840C091A001833F914098F41F
:102440002091A8013091A901AFEBB9E00E94F63EBE
:102450009A0140E050E00E94AF3E3093A9012093E2
:10246000A801C46001C0CB7FC093A0018EE00E9490
:10247000B71B9093A7018093A60188EC8093A301DA
:102480008EE00E94B71B2091E401820F911D27FD71
:102490009A959093A7018093A60189E18093A30167
:1024A000CF9108950E94313B8FEF97E090932D01DB
:1024B00080932C018EE392E00E944320F8940FB6A3
:1024C000F894A895809160008861809360001092D4
:1024D00060000FBE5E9883B7817F846083BF83B73F
:1024E000816083BF889583B78E7F83BF089587E31C
:1024F00092E00E9472208091AA019091AB016AE063
:1025000070E00E94873E80E090E026E54EEF0E945A
:10251000FA200E946E208091AA019091AB01811552
:1025200029E1920748F480E098EF90932D01809381
:102530002C018BE292E014C0883E9C4148F480EE6E
:102540009FEF90932D0180932C018FE292E008C0C1
:1025500080EE97E090932D0180932C0184E392E02C
:102560000E94432080EE97E090932D0180932C01F0
:10257000089585E00E94B71B9C01AEEBBFE00E946E
:10258000F63E28EE33E040E050E00E94AF3E2E5D84
:102590003E4F3093AB012093AA0184E68093AC01B7
:1025A0002115394150F40E94313B0E94771288EB8B
:1025B0009BE00E942E170E9452120895CF92DF9244
:1025C000EF92FF92CF93C1E02AE0C22ED12CE12CF2
:1025D000F12C6A3071058105910540F0A701960143
:1025E0000E94AF3ECA01B901CF5FF3CF8C2FCF91CC
:1025F000FF90EF90DF90CF900895A0E0B0E0E3E08F
:10260000F3E10C94183F4B015C01342E2801390191
:102610001E2D9B01AC01D1E09AE0C92ED12CE12CFA
:10262000F12C2A3031054105510540F0CA01B901AC
:10263000A70196010E94AF3EDF5FF3CFA301920195
:10264000C1E08AE0C82ED12CE12CF12C2A303105D2
:102650004105510540F0CA01B901A70196010E9448
:10266000AF3ECF5FF3CF81149104A104B10459F1BF
:10267000411451046104710409F1432D4D0FE12E01
:10268000EC0EE4164CF14E1129C0ED2FCD1754F489
:10269000AAE0B0E0A30192010E940C3F2B013C0193
:1026A000CF5FF4CFEC1754F4AAE0B0E0A501940199
:1026B0000E940C3F4B015C01EF5FF4CF48145904BA
:1026C0006A047B0448F081E084149504A604B704EE
:1026D00008F080E0819503C081E001C08FEFCDB7A5
:1026E000DEB7E1E10C94343FCF92DF92EF92FF929C
:1026F000CF93DF93C42FD22F2AE0C22ED12CE12C0E
:10270000F12CCD1791F0CD1744F4A70196010E944A
:10271000AF3ECA01B901CF5FF4CFAAE0B0E09B01A0
:10272000AC010E940C3FC150ECCFDF91CF91FF90E4
:10273000EF90DF90CF9008950F931F93CF93DF9387
:10274000182FEC010C2F011BCE010E949A3F882309
:1027500011F02196F7CF802FDF91CF911F910F912C
:102760000895CF93CAB18AB1857F8AB90E947F3C10
:1027700099B193FF02C082E001C080E091FD8160C9
:10278000CAB990913701913031F48093360110929B
:10279000370110923901909139012FEF290F293F0C
:1027A00018F49F5F90933901909136018093360120
:1027B000891771F1282F292720FF2695213029F527
:1027C000990F22E730E002C0359527959A95E2F7F8
:1027D0002370821711F085E001C084E090913801E8
:1027E0009F5F9093380190913701891729F091E00C
:1027F000909338019093390180933701909138017B
:10280000943030F01092380104C081E08093370199
:1028100080E0CF910895A0E0B0E0E1E1F4E10C9414
:10282000193F6C01D62F81E0809337011092380157
:10283000809334018091A10185FF04C060E5E62EFC
:10284000F12C02C0E12CF12CD2FF08C08091A00134
:1028500080FD02C0DC7F02C0C12CD12CD5FF19C085
:1028600080913A0190913B010E949C138150B0905D
:1028700029018B1570F4B81ADC7F60912A018B2D29
:102880000E949F3A80913A0190913B010E9443201F
:1028900001C0B12C2D2F2370822E19F081E00E94EF
:1028A000FC3B32E0732EA12C42E3942EC0E001E009
:1028B00010E058E2652E8D2F8270582E2D2F20713A
:1028C000422ED870C114D10449F083E0C816D10457
:1028D00020F022E0C21AD10801C000E04F9935C0B3
:1028E0008EE190E00E942E17C0E0002311F04F9B74
:1028F00004C0CB3108F08EC008C0CF5FCB31C8F721
:102900008AE090E00E942E17F0CFDD2309F485C005
:1029100082E390E00E942E17C4E111E04F990CC0B1
:102920008EE190E00E942E174F9906C088EC90E04F
:102930000E942E17C1E013E0C1508AE090E00E948F
:102940002E17C111EBCF00E070C00E94B113882395
:1029500051F1AA2019F0811711F073C0182FA39418
:10296000809139016A2D0E946D3E9CE0990D982E50
:10297000990E28E1829FC001112424E09695879545
:102980002A95E1F7893208F088E286958695869542
:10299000833010F493E0792E7A1005C097E0981BED
:1029A000909334014EC0AA2029F0809139018915F5
:1029B00008F047C082E090E00E942E17CF5F8C2F76
:1029C000662D0E946D3E91110BC08091AC0182304A
:1029D00020F081508093AC0103C041100E94B912D5
:1029E000C83C19F5552059F0013029F480E00E94C7
:1029F000FC3B02E004C081E00E94FC3B01E0E114EA
:102A0000F10471F081E0E816F10461F021E0E21ACE
:102A1000F10806C000E012E008C000E011E005C0C7
:102A2000C0E003C0C0E000E017E68091A10180FF94
:102A300006C08091A1018E7F8093A10102C0011187
:102A400041CF882019F080E00E94FC3BBB2041F080
:102A500060912A018B2D0E949F3A80E00E94CA3A21
:102A600010933301173611F40E945212812FCDB703
:102A7000DEB7E0E10C94353F65E188EB9BE00E9416
:102A80000B1408954F9904C00E94793CA895FACF81
:102A900084EF91E00E942E1708950F931F93CF9318
:102AA000DF93D82F882321F002E812E0C3E003C0AF
:102AB00009E812E0C0E00E94D11CC817F9F00E949A
:102AC000313BC8010E9443200E940B2083E792E023
:102AD0000E9443200E94D11CC81305C088EC90E0DE
:102AE0000E942E170BC060E184E690E00E940B1458
:102AF000D13081F7882371F380E001C081E0DF915C
:102B0000CF911F910F910895681310C080EE9FEF31
:102B100090932D0180932C018AE20E948A3B80EEE3
:102B200097E090932D0180932C0108950E946E20D0
:102B30000895A0E0B0E0EFE9F5E10C941A3F762E9D
:102B4000642E552E59010FEF080F90902A01DD24B5
:102B5000DA94D90C8AE30E948A3B12E0D0E0C0E00C
:102B60009A949A9481E0882E8D1881E0D81202C040
:102B70001F5FDC2FE62CF52CED0EF11CED0EF11C89
:102B8000C12CCD1498F562E06C0D81E00E949F3A53
:102B9000E1E0DE1629F06C2F8D2F8C0D0E9484153C
:102BA0001130E1F0F1E07F1206C0F70180819181E0
:102BB0000E9443200AC0C7010E94A23FBC0180E0DE
:102BC00090E020E040E00E94FA20A114B10419F046
:102BD000C5010E94432080E00E94CA3AF2E0EF0E55
:102BE000F11CC3940C1568F6CD2CCBCF81E0D81224
:102BF00009C060912A01809129010E949F3A8CE3CB
:102C00000E948A3B60E180E090E00E940B148130DA
:102C100071F18430B1F0853089F4C11106C00D1511
:102C200018F1D82DD00FC02F07C0C150DC131DC024
:102C3000CD2FDD23D1F0D15012E097CF8230A9F40F
:102C400016C00C1304C00D1558F012E00AC0CF5F77
:102C5000892D8D0FC81309C0C01738F4DF5FECCF82
:102C600011E0D0E0C0E081CFC02F11E07ECF0E9404
:102C7000313B84EF91E00E942E178C2FCDB7DEB749
:102C8000EFE00C94363FA9E0B0E0E9E4F6E10C9403
:102C9000263F182F81E391E09A83898381E08F8317
:102CA0008EE291E09C838B8382E088878EE592E0C0
:102CB0009E838D8319860E94313B123019F481EA7C
:102CC00092E002C08CE992E00E94432020E030E0D4
:102CD000AE014F5F5F4F61E083E00E949915FE01F6
:102CE000E80FF11D6781662319F0812F0E94BE173E
:102CF0002996E3E00C94423FAAE2B0E0E2E8F6E174
:102D00000C94273F8BE192E09A83898386E08D8F34
:102D10008FE092E09C838B8387E08E8F89E092E046
:102D20009E838D8388E08F8F83E191E098878F83E6
:102D300089E088A387EE91E09A87898783E189A358
:102D400080EC91E09C878B878CE18AA387EF91E0F0
:102D50009E878D878AE08BA381EB92E0988B8F878B
:102D600081E08CA386EA92E09A8B898B82E08DA326
:102D700081EA92E09C8B8B8B83E08EA38CE992E0BE
:102D80009E8B8D8B84E08FA380E992E0988F8F8B50
:102D900085E088A78CEB91E09A8F898F84E189A7E1
:102DA0008EE592E09C8F8B8F1AA60E94313B86EBBA
:102DB00092E00E94432020E030E0AE014F5F5F4F81
:102DC00061E08EE00E949915FE01E80FF11D858DEE
:102DD000AA96E2E00C94433FCF930E947C1690E0C9
:102DE000FC013197EC31F10558F5EC5CFF4F0C9488
:102DF000F03E0E949B1A02C00E947B18C82F21C07F
:102E000082E001C081E00E9443161AC00E940818A7
:102E100017C00E94D83614C00E943A3811C00E94D0
:102E200081340EC00E9400350BC00E94723908C068
:102E30000E94463505C00E94521202C00E943C36D4
:102E4000C1E00E94313BC11103C083E692E002C0A1
:102E50008DEB92E00E944320CF9108952091A20132
:102E6000A0E0B0E0F3E0880F991FAA1FBB1FFA95FE
:102E7000D1F72630D1F4492F5A2F6B2F77274F5F88
:102E80005F4F6F4F7F4FE4E0440F551F661F771F62
:102E9000EA95D1F7481759076A077B0728F4841B7E
:102EA000950BA60BB70B01C020E01092B100109259
:102EB000B20032E03093B0003093700033B7317F0E
:102EC000232B23BF0FB607FC03C0789430E001C06A
:102ED00031E047E00097A105B105F9F0A8958F3FD3
:102EE0009105A105B10509F010F4282F01C02FEFBD
:102EF000821B9109A109B10921502093B30040938D
:102F0000B1002091B100222329F323B7216023BF10
:102F1000889523B72E7F23BFF4CF311101C0F894D9
:102F200008951F920F920FB60F9211241092B100C4
:102F30000F900FBE0F901F901895EDEDF1E088EC0B
:102F400090E0918380838CED90E09383828384E191
:102F500090E0958384838BE28683178210861186A6
:102F60000895EDEDF1E080E09191890F91E0E73E69
:102F7000F907D1F7811101C081E00895EF92FF9226
:102F80000F931F93CF93DF93E82E623019F0C6E0C2
:102F9000D3E002C0CBEFD2E00E94B1178093E701EB
:102FA0008BE0F82E0DED11E082E0E81206C0F8018A
:102FB0006081CE010E94A83F05C0CE010E949A3FC9
:102FC000F80180830F5F1F4F2196FA94F110ECCF28
:102FD000F2E0EF16C1F00E94B1179091E70199233A
:102FE00091F0891781F00E94313B85E592E00E94C3
:102FF000432083E692E00E94772080ED97E00E94D4
:103000002E170E949D17CDB7DEB7E6E00C943F3F28
:1030100081E0809326010E94313B8BE591E00E9484
:1030200072206091DD017091DE0180E090E024E08B
:103030004FEF0E94FA2087E591E00E948220609184
:10304000DF017091E00180E090E024E04FEF0E940A
:10305000FA2081E491E00E9482206091E30170E017
:1030600080E090E026E444EF0E94FA208EE391E0B5
:103070000E9482206091E1017091E20180E090E085
:1030800024E04EEF0E94FA2087E691E00E94822021
:103090006091A6017091A70180E090E026E54DEFD8
:1030A0000E94FA208AE391E00E9482206091A801A8
:1030B0007091A90180E090E026E54DEF0E94FA2092
:1030C0008091A00182FF05C00E946E208AE20E94CA
:1030D0008A3B84E391E00E9482206091E501062E04
:1030E000000C770B880B990B26E54DEF0E9482218F
:1030F0000E943C150895A5E0B0E0E1E8F8E10C94E9
:10310000173F81E00E944D15612C712C1B82A12C70
:10311000B12C1A82C12CD12C412C882309F483C1F3
:10312000812C912C212CE12CF12C00E010E01D824F
:103130001C8262E0562E3324339421E029830E94BE
:10314000313B81E40E948A3B80E3850D0E948A3BEB
:103150000E946E2034E0531609F451C0351568F012
:1031600082E0581699F093E0591208C180E00E945D
:103170004D1580E094E6998302C125E0521609F4CA
:1031800067C036E0531609F4A2C0F8C08EE391E0A0
:103190000E94722084E491E00E94432040E060E0BD
:1031A00081E00E942A1C80E00E9432229D838C8351
:1031B0008639910518F4C80ED91E439440E060E0AA
:1031C00082E00E942A1C80E00E9432228C01863913
:1031D000910518F4C80ED91E439440E061E082E0E6
:1031E0000E942A1C80E00E9432227C0186E9E816B7
:1031F000F10408F0C3C0CE0CDF1C4394BFC08BE5C4
:1032000091E00E94432018B837B835B834B880E050
:103210000E94181C9D838C8322E027B955B854B8AE
:1032200081E00E94181C8C018C819D81800F911F70
:10323000A80EB91E57B830E135B934B982E00E9402
:10324000181C7C01A80EB91E8A818D5F8A8396C0E6
:1032500087E591E00E94432015B838B837B834B8F4
:103260002091A8013091A9013D832C8380E00E9428
:10327000181C2C813D81281B390B3D832C8332E0A7
:1032800038B937B984E084B90091A8011091A90137
:1032900081E00E94181C081B190B8C819D81800FF6
:1032A000911F680E791E94E098B997B920E124B96E
:1032B000E090A801F090A90182E00E94181CE81A91
:1032C000F90A6E0C7F1C3B813D5F3B8357C081E454
:1032D00091E00E94722084E491E00E94432040E04B
:1032E00060E081E00E94802980915101843F91F447
:1032F0008091560190915701A0915801B0915901C8
:1033000085369105A105B10528F49D838C83880E2F
:10331000991E239441E060E082E00E948029809120
:103320006001843F89F48091650190916601A091CC
:103330006701B091680185369105A105B10520F4BA
:103340008C01880E991E239442E061E082E00E9485
:10335000802980916F01843F89F48091740190915C
:103360007501A0917601B091770185369105A1058F
:10337000B10520F47C01880E991E239481E017B8D2
:1033800018B814B815B8882319F10E940B202C81A5
:103390003D81C901A0E0B0E020E040E0BC01CD01EA
:1033A0000E94FA200E946E20C801A0E0B0E020E058
:1033B00040E0BC01CD010E94FA200E946E20C701AE
:1033C000A0E0B0E020E040E0BC01CD010E94FA2086
:1033D0003981343681F060E188EE93E00E940B146D
:1033E000882349F0823029F454E6552E84E68983F7
:1033F00002C094E6998329812F5F2983263008F43F
:103400009ECE539436E0351508F097CE8FE0281203
:103410000AC0C4016FE070E00E94873E6093E30140
:1034200091E0998301C019822FE042120CC0C601BD
:103430006FE070E00E94873E7093E2016093E101CB
:1034400039813F5F39833A813F3009F06DC08B810C
:103450008F3009F062C0E5E0F0E0C501BF010E94D5
:10346000873E9B01C301BF010E94873E8B01809173
:10347000A8019091A9016C01CC0CDD1CC80ED91ECD
:10348000C21AD30AC61AD70AE12CF12CD90120EAB4
:1034900039E041E050E00E940C3FA70196010E94F4
:1034A000AF3ECA01B9016B5F7F4F8F4F9F4F2AE03C
:1034B00030E040E050E00E94AF3E2A3F3105410538
:1034C000510538F43093DE012093DD0199819F5F2F
:1034D0009983D80120EA39E041E050E00E940C3F96
:1034E000A70196010E94AF3ECA01B9016B5F7F4FF1
:1034F0008F4F9F4F2AE030E040E050E00E94AF3E07
:10350000283181E038074105510538F43093E00156
:103510002093DF0199819F5F99830E94081881E0C1
:103520002981243019F403C00E94081880E02596F0
:10353000E2E10C94333FA0E0B0E0E1EAFAE10C9460
:10354000173F81E00E944D15882309F40AC1C12C60
:10355000D12CE12CF12C00E010E0C1E092E0292E0A
:1035600028E0322E34EF432E36E0532E612C712C9E
:10357000D1E00E94313B84E50E948A3B80E38C0FBE
:103580000E948A3B0E946E20C33009F46BC0C8F5CC
:10359000C13009F451C0C23009F0A8C082E591E001
:1035A0000E94722084E491E00E9443202091A801AF
:1035B0003091A901A0E7B3E00E94F63EA301920179
:1035C0000E94D13E49015A0181E085B985E084B964
:1035D00082E00E94211C6C01C818D90881E184B9DD
:1035E00081E00E94211C7C01E818F90884E085B97B
:1035F00084E184B980E00E94211C8C01081919091A
:1036000075C0C53009F45DC008F455C0C63009F076
:103610006DC08FE591E00E94432025B824B880E07A
:103620000E94211C8C0135B834B881E00E94211C15
:103630007C0180E285B955C08EE00E94B71B8EE008
:103640000E94B71B5C0187E691E00E9443200E9424
:103650000B20B50180E090E026E54DEF0E94FA20B6
:1036600080E045C08DE491E00E94722084E491E006
:103670000E9443200091A8011091A9011695079579
:1036800025B88AE084B982E00E94211C6C01C01A2E
:10369000D10A82E284B981E00E94211C7C01E01AF7
:1036A000F10A35B888E284B980E00E94211C801BB1
:1036B000910B8C011BC080E00E944D1580E0D4E688
:1036C00016C083E691E00E94432015B824B880E03C
:1036D0000E94211C8C0134B881E00E94211C7C01D5
:1036E00080E284B982E00E94211C6C0181E014B860
:1036F00015B8882309F10E940B2020E040E0B801B2
:10370000012E000C880B990B0E9482210E946E20D2
:1037100020E040E0B7010F2C000C880B990B0E94B1
:1037200082210E946E2020E040E0B6010D2C000CAA
:10373000880B990B0E948221D43659F060E188EE03
:1037400093E00E940B14882321F0823009F4C4E630
:10375000D4E6DF5FD63008F40CCFCF5FC73008F473
:1037600007CF81E0CDB7DEB7E2E10C94333FCF93D2
:10377000DF938F70C82FC064C0937C00DC2FD07C97
:103780008091A501D81721F00E94833CD093A50118
:1037900080917A00806480937A0080917A0086FD1F
:1037A000FCCF20E030E0A90180E0E091A3018E177A
:1037B00008F590917A00906490937A0090917A0045
:1037C00096FDFCCF6091780070917900260F371F2D
:1037D000411D511D843061F4211594E0390740F4F6
:1037E000D03C31F09091A401913011F4C06CC4CF61
:1037F0008F5FDBCFD03C29F4A091A601B091A70147
:1038000004C0A091A801B091A9010E940C3F2AE038
:1038100096958795779567952A95D1F72E2F30E065
:1038200040E050E00E94AF3EC901DF91CF91089582
:10383000CF93C82F0E947A3C8C2F0E94B71BCF9148
:103840000895CF93C82F0E94783C8C2F0E94B71BFD
:10385000CF910895A0E0B0E0E0E3FCE10C94213FBB
:10386000E62E042FCBECD1E0888369834A83C82EEF
:10387000D12CC601875F9F4F0E949A3F8E83F12C07
:10388000C701875F9F4F0E949A3F8F8310E0C80156
:10389000875F9F4F0E949A3F8887C6018A5F9F4F2C
:1038A0000E949A3F8987C7018A5F9F4F0E949A3F73
:1038B0008A87C8018A5F9F4F0E949A3F8B87C60103
:1038C0008D5F9F4F0E949A3F8C87C7018D5F9F4FEE
:1038D0000E949A3F8D87C8018D5F9F4F0E949A3F3B
:1038E0008E87C601805090400E949A3F8F87C70103
:1038F000805090400E949A3F888BC8018050904031
:103900000E949A3F898BCDB7DEB7E8E00C943D3F2B
:10391000EBECF1E04581648183810E942A1C0895CB
:10392000EBECF1E0808183838181848382818583D4
:10393000089593E0981B892F861B0895CF93DF93FA
:1039400040E00E942A1C17B89091D10195B980914E
:10395000D201892B84B98091DA010E94181CEC01F4
:103960008091DB010E94B71BAC012091A80130912E
:10397000A90136952795C9014E978C179D0760F4CC
:10398000225E3F4FC217D30738F48417950720F4FF
:1039900081E04217530708F080E014B8DF91CF911F
:1039A0000895CF9361E080E00E949E1CC82F62E0E2
:1039B00080E00E949E1CC80F62E081E00E949E1C75
:1039C0008C0FCF9108950F931F93CF93DF93D82F30
:1039D000C62F17B818B814B815B840E00E942A1CB2
:1039E0008091D70187B98091DB010E94B71B8C01C0
:1039F0008091D80187B98091DA010E94B71B08171E
:103A0000190728F440E06D2F8C2F0E942A1C80910A
:103A1000D70187B98091D20184B9C2E38091DB01DB
:103A20000E94B71B9C01203981E0380738F0C15053
:103A300069F084E690E00E942E17F0CF87B1909154
:103A4000D801982B97B92832310588F717B814B8E0
:103A5000DF91CF911F910F910895A6E0B0E0E3E3CD
:103A6000FDE10C941C3F17B818B815B88FE384B962
:103A700080E00E94B71B9A83898381E00E94B71B74
:103A80009C838B8382E00E94B71B9E838D83E12CF5
:103A900012E008E2FF24F394AA24A394B12C1F5F40
:103AA000133009F410E0812E912C8E2D90E0012E20
:103AB00002C0959587950A94E2F780FDF0CF812F9B
:103AC0000E94B71B6C01F401EE0FFF1F81E090E034
:103AD0008C0F9D1FE80FF91F80819181C816D906B0
:103AE00060F4D182C082802F90E08F1991094497B1
:103AF0006CF40B3E58F40C5E09C09AE0C916D10470
:103B000018F4083209F400E5F39402C0FF24F3949A
:103B100083E0C816D10440F4C501082C01C0880F09
:103B20000A94EAF7E82A0DC090E2C91693E0D90694
:103B300040F477B0C4018D5F9F4F0E949A3F872960
:103B400087B987E0E816A1F00F1560F481E0809353
:103B500006018093070110930C01D0920E01C092D0
:103B60000D0106C0A89582E390E00E942E1797CF22
:103B700014B817B82696EDE00C94383FCF93C82FB1
:103B8000C09595B160FF02C0982B01C09C2395B9E8
:103B900094B1892B84B963FF03C00E947E3C02C0AC
:103BA0000E94793C84B18C2384B985B1C823C5B9FE
:103BB000CF910895A0E0B0E0E0EEFDE10C94223F4B
:103BC000613039F0623071F06330A9F080E090E04C
:103BD0004DC0CFE7D0E0E7E0F0E002E310E028EEF0
:103BE00033E011C0C1E9D0E0ECE2F0E009E110E01F
:103BF0002CE231E008C0CFE3D0E0EEE1F0E009E1F3
:103C000010E028EC30E08217930768F1821B930BD9
:103C1000B8010E94873ED02ED81ACB019927E81709
:103C2000F90708F46E2FC60FD11DC60FD11DCE01A6
:103C30000E94A23F7C01CE0102960E94A23FFC019D
:103C4000E81AF90ADE9C9001DF9C300D1124C801AE
:103C500096958795820F931FB8010E94873ECF01EA
:103C6000860F971F03C0D02E60E0DDCFCDB7DEB743
:103C7000E7E00C943E3FA4E0B0E0E1E4FEE10C9408
:103C8000173F6B017C014B830983263049F02C30B0
:103C900009F0F5C02C832CE0A22E20E0B22E06C045
:103CA00086E08C8394E2A92E90E0B92E8AE0482E1B
:103CB000512C612C712C80EAC81686E8D80681E068
:103CC000E806F10460F0C701B601A30192010E9469
:103CD000AF3E69017A012B812F5F2B83ECCF80E10E
:103CE000C81687E2D806E104F10460F4AAE0B0E067
:103CF000A70196010E940C3F6B017C012B81215092
:103D00002B83EDCFC701B6012AE030E040E050E060
:103D10000E94AF3E29013A01CA01B9012B812A83D1
:103D20002F5F2B8328EE421623E0520661047104B4
:103D300058F7212C312C812CC5010E94A23F8C0107
:103D40008415950520F08C8188110BC008C022E0F5
:103D5000A20EB11C83941C018C818812EDCF08EE59
:103D600013E09101A4E6B0E00E94F63E2B013C0175
:103D70002981822E912CA12CB12C9B01AC01C50173
:103D8000B4010E945D3E28EE33E040E050E00E9426
:103D9000AF3E420E531E641E751E4C145D046E042D
:103DA0007F04E8F08981823348F0C1016AE070E065
:103DB0000E94873E1B012A812E5F01C02B81C10119
:103DC000A0E0B0E08093C1019093C201A093C30131
:103DD000B093C4012093C50121E02C8301C01C8253
:103DE0009801A4E6B0E00E94F63E2B013C01A5013B
:103DF00094010E945D3E28EE33E040E050E00E94D6
:103E0000AF3E421A530A640A750AC414D504E60484
:103E1000F704B0F1083E83E0180729F42A812E5FE9
:103E20002B8304E610E08981823348F0C8016AE000
:103E300070E00E94873E8B012B812F5F2B8320E057
:103E400030E08C8181110CC00093C1011093C2013C
:103E50002093C3013093C4012B812093C5010BC073
:103E60000093C6011093C7012093C8013093C90184
:103E70008B818093CA012C812F5F2C8301C01C820F
:103E80008C812496E2E10C94333F0F931F93CF93E0
:103E9000DF9390910601913009F497C0062F182FF7
:103EA000A8950E942A1C15B88091D20184B98091EE
:103EB000D70187B988B960E18091D3010E94BE1D06
:103EC0008091DB010E94181CEC01813D934050F071
:103ED00061E18091D3010E94BE1D8091DB010E94AF
:103EE000181CEC01C031D10528F480910801811122
:103EF00028C00DC080910801811103C0CE010E942D
:103F0000322FC13D83E0D80708F043C0EECF809147
:103F1000D20184B915B88091D70187B988B90E94B8
:103F20007A3C9091D2018091D301892B84B9802F62
:103F30000E94181C8F359D4020F0BE0182E00E9437
:103F4000402D8091080181112CC08091D80187B942
:103F500018B89091D1018091D301892B84B985B98A
:103F6000812F0E94181C8034964060F40E94D73044
:103F7000811108C080910601813221F0BE0181E0EB
:103F80000E94402D8091080181110BC00E94C9310F
:103F900008C080910801811102C00E9478310E94FE
:103FA0009D2A80910601882311F08A3019F40E941D
:103FB000FE2207C08F3129F48091070184FD0E9401
:103FC0009C2B17B818B814B815B8DF91CF911F9172
:103FD0000F910895809109018823E1F090910801E3
:103FE00090FD18C091FD04C0909106019E3190F49F
:103FF0008093060180913C018093AF0180913D0147
:104000008093B00180913E018093B10180911001B5
:1040100080930F010895CF936091280180912A0128
:10402000681315C0C0912601C0FD0E943C15C1FF58
:104030000BC0C0912A01C23028F08C2F0E94CA3ACE
:10404000C150F9CF62E004C00E94313B04C06F5FF1
:1040500081E00E949F3ACF910895CF93C0912801AB
:1040600080912A01C8130DC00E943C158C2F0E941C
:10407000CA3A6C2F81E00E949F3A84EF91E00E943F
:104080002E17CF910895CF93DF93EC01CE010E94BC
:104090009A3F882321F00E948A3B2196F7CFDF9137
:1040A000CF9108950F931F93CF93DF93C6E2D1E092
:1040B0000E811F81E82FF0E0EE0FFF1FE050FF4F51
:1040C000208131813F832E838F5C0E948A3B1F8336
:1040D0000E83DF91CF911F910F91089580E20E948E
:1040E0008A3B08950E9443200E946E200895CF933A
:1040F000DF93EC010E940B20CE010E944320DF9150
:10410000CF910895CF93DF93EC010E940B20CE0155
:104110000E9443200E946E20DF91CF91089582E09B
:104120000E94CA3A62E081E00E949F3A08958A3074
:1041300010F4805D01C0895A0E948A3B0895CF9394
:10414000C82F82958F700E9497208C2F8F700E94AD
:104150009720CF910895CF92DF92FF920F931F93F4
:10416000CF93DF93D42F022F2AE043E451E00E9443
:104170004E3FE3E4F1E001900020E9F73197CF01F1
:1041800083549140F82EDD2369F08D1728F0C82F55
:10419000CD1BD0E041F401C0D81B80E30E948A3BD4
:1041A000C0E001C0C4E683E4C82E81E0D82E10E050
:1041B0001F1598F41C130AC08EE20E948A3BDD236F
:1041C00029F080E30E948A3BD150F9CFF60181911A
:1041D0006F010E948A3B1F5FEBCF002319F0802FF5
:1041E0000E948A3BDF91CF911F910F91FF90DF904A
:1041F000CF900895A0E0B0E0E0E0F1E20C941D3F24
:104200006B017C01C42F122F9AE0892E912CA12CD6
:10421000B12C80E1C81687E2D806E104F10470F001
:10422000C701B6016B5F7F4F8F4F9F4FA501940170
:104230000E94AF3E69017A01CF5FEBCFC13FACF086
:104240008FE08C0F23E0622F0E94793ED92F9923B3
:1042500019F08F5F291BD22F883040F490E08351F2
:104260009F4F0E949A3F082F02C0D0E000E04AE032
:1042700063E471E0C6010E94703FE3E4F1E0019065
:104280000020E9F73197E354F140BE2ECE2FCD1B2D
:104290001C165CF080E30E948A3B8EE20E948A3BFF
:1042A000CC2319F080E30E948A3BD11101C0CFEFEB
:1042B000C15083E4C82E81E0D82EE12CF12C0C2EC5
:1042C000000CDD0BEB1478F4F60181916F010E9474
:1042D0008A3BCE15DF0519F48EE20E948A3BFFEF80
:1042E000EF1AFF0AEFCF002319F0802F0E948A3BBC
:1042F000112319F0812F0E948A3BCDB7DEB7ECE085
:104300000C94393FCF92DF92EF92FF92CF93DF93DD
:104310006B017C01C42FD22F97FF0BC08DE20E944E
:104320008A3BF094E094D094C094C11CD11CE11C51
:10433000F11C2D2F4C2FC701B6010E94FA20DF91EE
:10434000CF91FF90EF90DF90CF900895FC01362F32
:10435000242F8CE0860F63E00E94793E913059F45F
:10436000E436F10540F48AE0AF01849FF001859FB7
:10437000F00D11243150BF0180E090E0432F0E94E6
:10438000FA200895CF9390910F01292F220F920FB9
:10439000E62FF0E0E90FF11DE056FF4FE491EE2328
:1043A000C1F090913101915060913201E1FF04C060
:1043B00020912F012F5F920FE2FF04C02091300166
:1043C000620F6150C82F892F0E949F3A8C2F0E9444
:1043D0005220CF910895CF93DF93209130013091F7
:1043E0002A012317E0F590912901903118F0280F48
:1043F000231738F0309328010E940B2093E082E0CD
:1044000003C020912F01921B9093310180933201C0
:1044100060E08091AF010E94C22161E08091B00113
:104420000E94C22162E08091B1010E94C221C0912C
:104430002C01D0912D0180EE9FEF90932D01809360
:104440002C0160913201809131010E949F3A80914C
:104450000F010E940B3CD0932D01C0932C01DF91E2
:10446000CF9108954F925F926F927F928F929F9219
:10447000AF92BF92CF92DF92EF92FF921F93CF93B2
:10448000DF93C82F0E942D1D80910601813009F411
:1044900056C018B88091D80187B98091D10185B9EB
:1044A00084B90E94793CC12CD12C760181E0182F6F
:1044B000117080FF03C08091DA0102C08091DB019E
:1044C000A895806C80937C000E94833C80917A0048
:1044D000806480937A0080917A0086FDFCCFD4E6D8
:1044E000812C912C540180917A00806480937A0011
:1044F00080917A0086FDFCCF8091780090917900C0
:10450000880E991EA11CB11C0E94803CD15059F705
:10451000A091A601B091A701A50194010E940C3FB2
:104520004B015C018AE0B694A794979487948A958E
:10453000D1F782E0112331F075016401B8CF80E03A
:1045400090E04CC015B89091D8018091D701892B8B
:1045500087B98C149D04AE04BF04D8F52091A8013E
:104560003091A901A4E6B0E00E94F63E9B01AC01A7
:104570002C193D094E095F090E940C3F2B013C019B
:10458000A7019601281939094A095B09A8EEB3E089
:104590000E940C3F6B017C012091DF013091E00112
:1045A0002057354E40E050E0C301B2010E94AF3EBB
:1045B000C701B6010E94AF3EC901C13061F46091EC
:1045C000E1017091E2016217730718F4861B970BE3
:1045D00002C080E090E020EC2093A501DF91CF9114
:1045E0001F91FF90EF90DF90CF90BF90AF909F9082
:1045F0008F907F906F905F904F900895A0E0B0E013
:10460000E4E0F3E20C94173FA89518B88091D80124
:1046100087B98091D10184B985B98091DB010E946D
:10462000181C4C018091DA010E94B71BEC0115B8EF
:104630008091D40184B98091DA010E94181C4597B9
:1046400008F044C28091D40185B98091DA010E94BA
:10465000181C6C018091D70187B988B915B8809171
:10466000D20184B98091DA010E94181C2C0180913A
:10467000DB010E94B71B3C018091D50184B9809178
:10468000DB010E94181C5C01C03321E1D20728F431
:1046900032E6C316D10438F019C24CE6C41643E121
:1046A000D40608F013C259EA6516710408F070C008
:1046B00086E2A816B10408F409C2D60120EF3BE255
:1046C00047E050E00E940C3FC091A801D091A901A1
:1046D0009E012C193D0940E050E00E94AF3E2901A7
:1046E0003A01DE01AA19BB0920EF3BE247E050E0A6
:1046F0000E940C3F850120E030E0A90198010E9452
:10470000AF3EEEEDCE16E3E0DE0680F4D301C2014B
:10471000D2E0880F991FAA1FBB1FDA95D1F7BC0101
:10472000CD01620F731F841F951F14C0FEEDAF16DD
:10473000F3E0BF06B0F4DA01C901C2E0880F991FA7
:10474000AA1FBB1FCA95D1F7BC01CD01640D751D11
:10475000861D971D25E030E040E050E00E94AF3E0E
:104760000CC0D301C201820F931FA41FB51F9C016F
:10477000AD015695479537952795225A3E4F4F4F95
:104780005F4FAAE0B0E00E940C3F4B015C01B3C058
:10479000C815D90508F483C04614570408F47FC02F
:1047A0004091A8015091A901C417D50709F4219798
:1047B0002091DF013091E0012057354EDE01A8192C
:1047C000B9090E94F63E9A012C1B3D0B40E050E0D7
:1047D0000E94AF3E49015A012091DD013091DE0176
:1047E0002057354ED201A619B7090E94F63E830123
:1047F00020E030E0A90198010E94AF3ECE3DD340B9
:1048000080F4D501C401F2E0880F991FAA1FBB1FD5
:10481000FA95D1F7BC01CD01620F731F841F951F5C
:104820001BC0EEED6E16E3E07E0660F5283FF4E275
:104830003F07F1E04F075105A0F4DA01C901E2E0BA
:10484000880F991FAA1FBB1FEA95D1F7BC01CD01A4
:10485000680D791D8A1D9B1D25E030E040E050E089
:104860000CC0A9E0B0E00E940C3F680D791D8A1DC4
:104870009B1D2AE030E040E050E00E94AF3E49013D
:104880005A0139C0D501C401820F931FA41FB51F5F
:104890004C015D01B694A794979487942CC02FE89F
:1048A000621622E1720608F001C181E00E94322204
:1048B0002C01612C712C812C912C540120E030E0D2
:1048C000A901280D391D4A1D5B1DAAE0B0E00E9418
:1048D0000C3F611571058105910521F464E670E0D6
:1048E00080E090E0461657066806790658F45301B2
:1048F0004201CEEF08C034E683169104A104B1044E
:1049000008F4C0C0CFEF80E0D7E02AE0F22E90910B
:104910000A01891708F09DC0682E712CD69D900160
:10492000D79D300D1124F901EF5EFE4F6F012081FC
:104930009091CB01291389C021819091CC01291339
:1049400084C0E12C02E010E020E030E04C2FC501F3
:10495000B4010E94FD128F3F09F03FC0F601638150
:1049600074818581968102E010E020E030E0428190
:104970000E94FD128F3F51F5F6014281C41719F0D4
:1049800055245A9402C055245394D69DC001D79DF6
:10499000900D11249C012F5E3E4F6901F901638146
:1049A000748185819681EC2E950184010E94FD120F
:1049B000F601581206C083809480A580B680C2811B
:1049C00005C083829482A582B682C2831401250128
:1049D00056944794379427940AC0C501B40124E142
:1049E00030E040E050E00E94AF3E19012A01D69D20
:1049F000C001D79D900D11249C012F5E3E4F69018F
:104A0000F9016381748185819681EC2E9501840181
:104A1000021913092409350942810E94FD1287FDFC
:104A200016C095018401020D131D241D351DF601CC
:104A3000638174818581968142810E94FD121816DE
:104A400034F0F092060184E662CF8F5F60CF88EC8D
:104A50005ECF8436D9F19330C8F527E0929FF001FC
:104A60001124EF5EFE4F8091CC0180838091CB01B9
:104A7000818383829482A582B682C2839F5F909352
:104A80000A0124C081E00E9432222C01612C712C89
:104A9000A5019401220F331F441F551F85E088167E
:104AA0009104A104B10408F40CCF0FCF81E00E945F
:104AB00032222C01612C712C8AE0882E912CA12CA1
:104AC000B12C24E130E040E050E0FFCECDB7DEB7BE
:104AD000E2E10C94333FEF920F931F93CF93C42FD7
:104AE00010920A0140E00E942A1C0E94FE2280913E
:104AF0000A018130B1F4CC23B1F00091140110917E
:104B0000150120911601309117016C2F70E080E0A3
:104B100090E0E090130143E00E94FD1291E08130AB
:104B200019F090E001C091E0892FCF911F910F9172
:104B3000EF900895813138F0815115BC92E094BD19
:104B400087BD81E0089580E0089516BC81E085BDB1
:104B5000A99BFECF15BC82E085BB0895A4E0B0E020
:104B6000E4EBF5E20C94173F009729F46FEF7FEF29
:104B70007C836B8339C19C838B83FC01638174814B
:104B800085819681A7EFEA2E0AE010E020E030E070
:104B900042810E94FD1287FDE9CF0E942D1D809168
:104BA0000601813019F3EB81FC81618180810E94D3
:104BB000E31C40E0EB81FC81618180810E942A1C22
:104BC0000091DA018091DB01006C806C8A8315BC56
:104BD00082E084BD81E287BD18B800937C000E940A
:104BE000793CFFEFF983812C912C54018394412C63
:104BF000512C3201439480E090E052E3C52ED12C39
:104C000016EDA895C29758F48091D80187B9809184
:104C1000D10185B984B90E948C3C14B815B822E33F
:104C2000C216D10458F48091D70187B98091D2017E
:104C300085B984B90E948C3C14B815B88091D7010D
:104C400087B98091D10185B984B900937C00109314
:104C50007A0080917A0086FDFCCF10937A008091D3
:104C60007A0086FDFCCF20907800309079006A8130
:104C700060937C0010937A0080917A0086FDFCCFCF
:104C800010937A000E94883C0E94A5258091D20151
:104C900085B984B90E948C3C14B880917A0086FD55
:104CA000FCCFC0907800D09079008091D80187B96E
:104CB0008091D20185B984B97A8170937C00109378
:104CC0007A0080917A0086FDFCCF10937A00809163
:104CD0007A0086FDFCCFE0907800F0907900009398
:104CE0007C0010937A0080917A0086FDFCCF1093AF
:104CF0007A000E94883C0E94A5258091D10185B947
:104D000084B90E948C3C14B880917A0086FDFCCF57
:104D10008091780090917900A70160E070E0420DE9
:104D2000531D611D711D440E551E661E771EAC017C
:104D300060E070E04C0D5D1D611D711D840E951EBF
:104D4000A61EB71EE981E150E983E1115ACF17B8D9
:104D500015B8481459046A047B04E8F58091DD0114
:104D60009091DE012AE0289FD001299FB00D1124E7
:104D7000A501940124193509460957090E940C3FE1
:104D8000A30192010E94AF3E8091E1019091E20166
:104D90008217930720F4B901681B790B19C0EB81C6
:104DA000FC8163817481858196812AEFE22E08EE71
:104DB00013E020E030E042810E94FD1221E030E06B
:104DC000181614F420E030E066277727621B730B77
:104DD0007C836B8304C08FEF9FEF9C838B8380EC7D
:104DE0008093A5010E942D1D8B819C812496E2E178
:104DF0000C94333FA0E0B0E0E0E0F7E20C94183F01
:104E00006C0101E113E00E942D1D809106018130AB
:104E100009F413C118B88091D80187B915B814B82E
:104E20008091DA010E94B71B5C01E12CF12C8FEF1D
:104E3000E81AF80A602F8091D1010E94BE1D80916E
:104E4000DA010E94B71BA816B90690F4EC01CA1942
:104E5000DB099EE7E916F10429F4CB34D10508F00B
:104E6000F0C00CC0CC32E1E0DE0740F481E007C0C6
:104E7000C0E0D0E0FEE7EF16F104C1F780E0F4EF08
:104E8000EF16F1E0FF0609F480E0A8958111CFCF7D
:104E9000CC3281E0D80708F411E091E0E916F10482
:104EA00059F4C531E5E0DE0738F0802F807109E064
:104EB00009F0A9CF12E0C3C0133009F0C0C0470108
:104EC00080E090E08114910459F0F1E08F1A91088C
:104ED0008091DA010E94B71B8A199B09A895F2CF2D
:104EE0008C179D0748F44E01881A990A85E68816A2
:104EF000910420F010E002C0812C912C8091DA0105
:104F00000E94B71B5C01902F9071392E19F00E94FE
:104F10006E3C02C00E94733C8091DA010E94B71B74
:104F20008A159B0518F4A81AB90A02C0A12CB12C45
:104F3000133009F084C062E0CE01880D991D0E94F3
:104F4000DA1D9C01D7010E94F63E2B013C01332063
:104F500031F1AAE0B0E09B01AC010E940C3F2B01B3
:104F60003C016833E9E87E07E1E48E07910508F427
:104F70006FC0C301B20128EE33E040E050E00E9470
:104F8000AF3E29013A01A8EEB3E00E940C3FCAEF00
:104F9000332089F022E434E040E050E010C0683370
:104FA00079488144910528F7A8EEB3E0A301920166
:104FB0000E940C3FC7EF20E134E040E050E00E9447
:104FC000AF3E8091CC01F60180838091CB0181833B
:104FD000C2834782508661867286238334834583E9
:104FE00056838AE0482E512C612C712C2130F5E338
:104FF0003F07FCE04F07510540F0CA01B901A3018A
:1050000092010E94AF3ECF5FF1CFD5010E940C3FCD
:1050100028EE33E040E050E00E94AF3ECA01B90103
:1050200003FDCF5F28EF4C2F0E947413F6016387B6
:1050300074878587968783E013C080E011C0812F35
:105040000FC081E0CC3291E0D90708F41ECF1CCF0D
:10505000A8EEB3E09B01AC010E940C3FC7EF9ACFD2
:10506000CDB7DEB7E1E10C94343FA0E0B0E0EBE374
:10507000F8E20C941F3FEC010E942D1D8091060167
:10508000813009F472C015B887E087B918B88091EB
:10509000D40184B980E480937B0084E480BF809154
:1050A000DA01806480937C0086E080937A000E941D
:1050B000823C109280001092810010928500109224
:1050C000840087E286BB8091D40185B98091060176
:1050D0008F3129F48091D7018095877002C080912B
:1050E000D80191E09093810087B9E12CF12C86B32F
:1050F00085FD0CC080FFFBCF96BBA8952FEFE21A71
:10510000F20A20E4E21626E0F20689F71092810006
:1051100090E296BBC0908600D090870014B8209192
:10512000840030918500C216D30638F480FF05C094
:1051300081E086BB8FEFE81AF80A86E980937A004F
:1051400080917B008F7B80937B008091DA010E94AD
:10515000B71B5C0115B88091D40184B920E4E21634
:1051600026E0F20620F081E0C6C080E0C4C0C6019F
:10517000A0E0B0E06701E12CF12C7601DD24CC2425
:10518000C82AD92AEA2AFB2A83E0C816D104E104F6
:10519000F104C8F082E0C81AD108E108F10828E358
:1051A000C21629E8D20621E4E206F10460F0C70144
:1051B000B60128EE33E040E050E00E94AF3E6901C6
:1051C0007A0117EF01C014EF2091E5018091A6014B
:1051D0009091A70161E0820F911D27FD9A950E9491
:1051E000DA1DDC01A70196010E940C3F20E233E0AA
:1051F00040E050E00E94AF3E143F89F48091E3010B
:1052000090E0A0E0B0E0281739074A075B0750F0AC
:1052100069017A01C81AD90AEA0AFB0A06C06901BB
:105220007A0103C0C12CD12C76018091CC018883F6
:105230008091CB0189831A832F83388749875A87C6
:10524000CB82DC82ED82FE82143F49F480EAC816EC
:1052500086E8D80681E0E806F10460F44BC0173F09
:1052600009F048C021E2C2162EE4D206E104F1049E
:1052700008F040C08091DA010E94B71B853D934041
:10528000C8F714B81092A4018091DA010E94B71BEC
:10529000EC0181E08093A4018091DA010E94B71BA8
:1052A000AC018091D40184B9DE01A41BB50BC0917F
:1052B000A601D091A701CD010496099788F09E011F
:1052C0000E94053F9A0140E050E00E94D13E80914B
:1052D000E401280F2093E401CC0DD11DC7FCDA9521
:1052E00085010C1B1D0BC801C1968336910510F476
:1052F0000093E50183E0CDB7DEB7EAE00C943B3FD5
:10530000A0E0B0E0E6E8F9E20C941F3FC42ED12CF7
:105310002FE0429FF0011124E15BFE4F10821182C9
:1053200094EF92831782108611861286138214825C
:1053300015821682138614861586168690910601AC
:10534000913009F47FC0B62EF82E9A3091F4C1E165
:10535000D1E0A12C07C088818F1591F08B15A1F0A9
:10536000A394279680910A01A816A8F384E6A812B0
:1053700069C06B2D8F2D0E948A2A0097C9F41FC027
:1053800099819B11EBCF03C08981F812E9CF6B8122
:105390007C818D819E81E12C0AE010E020E030E0EC
:1053A0004A810E94FD128F3FD9F683E6A82ED8CFFE
:1053B000FC01828193818C3D954008F443C08FE0CD
:1053C0008C9DE0018D9DD00D1124C15BDE4F40E02E
:1053D0006B2D8F2D0E942A1CCE010E94FA2682304E
:1053E00019F4CE010E94352880910601843120F500
:1053F0008A3079F48FE08C9DF0018D9DF00D1124A1
:10540000E15BFE4F82818A3FBCF08BE08093060116
:1054100013C08FE08C9DF0018D9DF00D1124E15B98
:10542000FE4F8281853F8CF783819481A581B6816F
:105430000597A105B10548F70E942D1D17B818B8AA
:1054400014B815B8CDB7DEB7EAE00C943B3FCF9265
:10545000DF92EF92FF92CF93C82F15B88091D201BF
:1054600084B98091D70187B988B98091DB010E9406
:10547000181C8430910500F1C090DD01D090DE0150
:10548000E12CF12C893725E0920770F0C13061F4EE
:1054900014B89091D7018091D801892B87B9809158
:1054A000DB010E94B71B06C020E9C20E2AE1D21E12
:1054B000E11CF11CC9EF0FC08091D50184B9809126
:1054C000DB010E94181C20EFC22E2BE2D22E27E017
:1054D000E22EF12CC8EF17B818B814B815B8DC01D3
:1054E00020EA36E841E050E00E940C3FA701960117
:1054F0000E94AF3E2093C1013093C2014093C3018B
:105500005093C401C093C501CF91FF90EF90DF90FD
:10551000CF90089590910B01ECE7F1E0992349F0C9
:105520002081281303C02181261729F09150369637
:10553000F5CFE0E0F0E0CF010895A0E0B0E0E3EACD
:10554000FAE20C941D3FA8950E942D1D8091060142
:10555000813009F4ECC018B88091D80187B98091E6
:10556000DA010E94B71B982EA92E8091D40184B92C
:1055700085B961E18091D3010E94BE1D8091DA015D
:105580000E94181CB82E892E8091D10184B985B94A
:1055900061E18091D3010E94BE1D8091DA010E94D9
:1055A000181C6C018091DB010E94B71B8C010E94CA
:1055B0002D1D80910601813009F4B9C018B8809181
:1055C000D80187B98091DA010E94B71B7C0117B816
:1055D0008091D70188B987B915B88091D50184B970
:1055E00060E18091D3010E94BE1D8091DA010E948A
:1055F000181CEC018091DB010E94B71BC817D9076A
:1056000018F0C81BD90B02C0C0E0D0E0C01AD10A04
:105610008091D20184B960E18091D3010E94BE1DC6
:105620008091DA010E94181C8C018091DB010E949C
:10563000B71B081B190B17B80C151D0548F4C6013C
:10564000801B910BE92CFA2CCB2DD82D860103C0A1
:10565000C8018C199D09893E934008F068C0C63086
:10566000D10508F464C0EC16FD0620F4CE018E19B5
:105670009F0903C0C7018C1B9D0B23E0E216F104B8
:1056800020F08436910508F452C0C832D10538F0B4
:10569000C801875991098938914158F148C015B816
:1056A0008091D20184B98091D70188B987B980915E
:1056B000DB010E94181C7C018091D10184B980918A
:1056C000D80188B987B98091DA010E94181C9C0121
:1056D000C70164E170E00E94873EC701861B970BFB
:1056E00082179307A8F66E0D7F1D2617370780F6E1
:1056F0001EC080910601882311F08A3019F484E1DC
:105700008093060180910B0196E0899FF00111249E
:10571000E458FE4F9091CB0190839091CC019183FE
:1057200013830283D583C4838F5F80930B01CDB72E
:10573000DEB7ECE00C94393F209107018091B10174
:105740009091B00120FF03C0682F892F01C0692FFD
:105750000E948A2A892B49F01092060110920701B3
:10576000809108018E7F809308010895A0E0B0E049
:10577000ECEBFBE20C941E3F282F2170922E80FF51
:1057800006C01091D101C091D70100E105C0109170
:10579000D201C091D80101E1C7708091DC01806421
:1057A00080937C000E94833CDAE0C12CD12C7601EE
:1057B000AA24AA9483E0B82EA895602F8091D301E3
:1057C0000E94BE1D8091D601812B84B9992021F0C1
:1057D00086B18C23E9F703C086B18C23E9F314B9B1
:1057E00080917A00806480937A0080917A0086FDAF
:1057F000FCCF8091780090917900992029F0C80E13
:10580000D91EE11CF11C07C09501281B390BC21AD7
:10581000D30AE108F108D15079F6C701B6012AE0B0
:1058200030E040E050E00E94D13EA091A801B0914C
:10583000A9010E940C3F20E034E040E050E00E94CB
:10584000D13E3093B6012093B50180E48093A50149
:10585000CDB7DEB7EBE00C943A3FA4E0B0E0E3E371
:10586000FCE20C94193FB82E8091D30121E0B212D2
:1058700026C09091D70197B998B99091D201982BF1
:1058800094B985B98091DB010E94181C8C0180912C
:10589000A8019091A9019A8389838091DC010E94DB
:1058A000B71BA981BA81A81BB90BBA83A9832801A8
:1058B000612C712CE091DD01F091DE0128C018B857
:1058C0009091D80197B99091D10195B9892B84B95C
:1058D0000091A8011091A9018091DA010E94181C81
:1058E000081B190B8091DC010E94B71B9A838983E6
:1058F0002801612C712C7094609450944094411C48
:10590000511C611C711CE091DF01F091E0012981C3
:105910003A81232B21F481E090E09A838983C801A6
:10592000A981BA818A1B9B0BBD010E94873E6B0136
:10593000E12CF12CA0E1B7E2A30192010E940C3FFF
:105940009F012057354E40E050E00E94D13E3093F9
:10595000B6012093B50129813A812031310508F043
:1059600089C08091D60131E0B31222C09091D2015A
:10597000982B94B985B98091DB010E94181C8C0189
:105980008091A8019091A9019A8389838091DC017B
:105990000E94B71BE981FA81E81BF90B4801A12C91
:1059A000B12CA091DD01B091DE01BA83A98324C09E
:1059B0009091D101892B84B90091A8011091A9017E
:1059C0008091DA010E94181C081B190B8091DC01E0
:1059D0000E94B71BFC014801A12CB12CB094A094EB
:1059E00090948094811C911CA11CB11C2091DF011A
:1059F0003091E0013A832983309711F4E1E0F0E03F
:105A0000D80120EF3BE247E050E00E940C3F9F01AD
:105A100040E050E00E94AF3E89819A818057954EC8
:105A20009A838983AAE0B0E00E940C3FA981BA81E1
:105A30002D01612C712CA30192010E94AF3E29839C
:105A40003A834B835C83C216D306E406F50690F4D2
:105A5000A0E1B7E2A50194010E940C3FA3019201CD
:105A60000E94D13E3093B6012093B501C980DA80FF
:105A7000EB80FC80C701B6012496E0E10C94353F31
:105A8000A0E0B0E0E6E4FDE20C94183F382E5B01A4
:105A90000E94901C8091D60121E0321229C0909181
:105AA000D101892B84B985B90E94753CC091A801A8
:105AB000D091A9018091DA010E94B71BC81BD90BB4
:105AC0000091A8011091A9018091DC010E94B71BEF
:105AD000F801E81BF90B6E01E12CF12C8090DF013D
